{
  "_format": "hh-sol-artifact-1",
  "contractName": "AIC",
  "sourceName": "contracts/AIC.sol",
  "abi": [
    {
      "inputs": [],
      "stateMutability": "nonpayable",
      "type": "constructor"
    },
    {
      "anonymous": false,
      "inputs": [
        {
          "indexed": true,
          "internalType": "bytes",
          "name": "message",
          "type": "bytes"
        },
        {
          "indexed": true,
          "internalType": "address",
          "name": "gmpService",
          "type": "address"
        }
      ],
      "name": "MessageReceived",
      "type": "event"
    },
    {
      "anonymous": false,
      "inputs": [
        {
          "indexed": true,
          "internalType": "bytes",
          "name": "message",
          "type": "bytes"
        },
        {
          "indexed": true,
          "internalType": "address",
          "name": "gmpService",
          "type": "address"
        }
      ],
      "name": "MessageSent",
      "type": "event"
    },
    {
      "inputs": [
        {
          "internalType": "address",
          "name": "_gmpService",
          "type": "address"
        }
      ],
      "name": "addGMPService",
      "outputs": [],
      "stateMutability": "nonpayable",
      "type": "function"
    },
    {
      "inputs": [
        {
          "internalType": "uint256",
          "name": "",
          "type": "uint256"
        }
      ],
      "name": "gmpServices",
      "outputs": [
        {
          "internalType": "contract IGMP",
          "name": "",
          "type": "address"
        }
      ],
      "stateMutability": "view",
      "type": "function"
    },
    {
      "inputs": [
        {
          "internalType": "bytes",
          "name": "message",
          "type": "bytes"
        },
        {
          "internalType": "uint256",
          "name": "gmpIndex",
          "type": "uint256"
        }
      ],
      "name": "receiveMessage",
      "outputs": [],
      "stateMutability": "nonpayable",
      "type": "function"
    },
    {
      "inputs": [
        {
          "internalType": "bytes",
          "name": "message",
          "type": "bytes"
        },
        {
          "internalType": "uint256",
          "name": "gmpIndex",
          "type": "uint256"
        }
      ],
      "name": "sendMessage",
      "outputs": [],
      "stateMutability": "nonpayable",
      "type": "function"
    }
  ],
  "bytecode": "0x608060405234801561001057600080fd5b50336000806101000a81548173ffffffffffffffffffffffffffffffffffffffff021916908373ffffffffffffffffffffffffffffffffffffffff16021790555061097b806100606000396000f3fe608060405234801561001057600080fd5b506004361061004c5760003560e01c806329701fa7146100515780632f2f7f271461006d57806330e1b2f914610089578063c580616f146100a5575b600080fd5b61006b60048036038101906100669190610564565b6100d5565b005b61008760048036038101906100829190610564565b61022e565b005b6100a3600480360381019061009e9190610622565b610386565b005b6100bf60048036038101906100ba919061064f565b610480565b6040516100cc91906106db565b60405180910390f35b600180549050811061011c576040517f08c379a000000000000000000000000000000000000000000000000000000000815260040161011390610753565b60405180910390fd5b60006001828154811061013257610131610773565b5b9060005260206000200160009054906101000a900473ffffffffffffffffffffffffffffffffffffffff1690508073ffffffffffffffffffffffffffffffffffffffff163373ffffffffffffffffffffffffffffffffffffffff16146101cd576040517f08c379a00000000000000000000000000000000000000000000000000000000081526004016101c4906107ee565b60405180910390fd5b3373ffffffffffffffffffffffffffffffffffffffff1684846040516101f492919061084d565b60405180910390207fcd2f6b88df8c8b87c8aef9401b93e061fe5ddc2008f7e670d45a8b2b6b9acc1860405160405180910390a350505050565b6001805490508110610275576040517f08c379a000000000000000000000000000000000000000000000000000000000815260040161026c90610753565b60405180910390fd5b60006001828154811061028b5761028a610773565b5b9060005260206000200160009054906101000a900473ffffffffffffffffffffffffffffffffffffffff1690508073ffffffffffffffffffffffffffffffffffffffff166382646a5885856040518363ffffffff1660e01b81526004016102f39291906108b5565b600060405180830381600087803b15801561030d57600080fd5b505af1158015610321573d6000803e3d6000fd5b505050508073ffffffffffffffffffffffffffffffffffffffff16848460405161034c92919061084d565b60405180910390207fa69577a1e55dd0712044e7078b408c39fadff8b3e1b334b202ff17e70eda9fdc60405160405180910390a350505050565b60008054906101000a900473ffffffffffffffffffffffffffffffffffffffff1673ffffffffffffffffffffffffffffffffffffffff163373ffffffffffffffffffffffffffffffffffffffff1614610414576040517f08c379a000000000000000000000000000000000000000000000000000000000815260040161040b90610925565b60405180910390fd5b60008190506001819080600181540180825580915050600190039060005260206000200160009091909190916101000a81548173ffffffffffffffffffffffffffffffffffffffff021916908373ffffffffffffffffffffffffffffffffffffffff1602179055505050565b6001818154811061049057600080fd5b906000526020600020016000915054906101000a900473ffffffffffffffffffffffffffffffffffffffff1681565b600080fd5b600080fd5b600080fd5b600080fd5b600080fd5b60008083601f8401126104ee576104ed6104c9565b5b8235905067ffffffffffffffff81111561050b5761050a6104ce565b5b602083019150836001820283011115610527576105266104d3565b5b9250929050565b6000819050919050565b6105418161052e565b811461054c57600080fd5b50565b60008135905061055e81610538565b92915050565b60008060006040848603121561057d5761057c6104bf565b5b600084013567ffffffffffffffff81111561059b5761059a6104c4565b5b6105a7868287016104d8565b935093505060206105ba8682870161054f565b9150509250925092565b600073ffffffffffffffffffffffffffffffffffffffff82169050919050565b60006105ef826105c4565b9050919050565b6105ff816105e4565b811461060a57600080fd5b50565b60008135905061061c816105f6565b92915050565b600060208284031215610638576106376104bf565b5b60006106468482850161060d565b91505092915050565b600060208284031215610665576106646104bf565b5b60006106738482850161054f565b91505092915050565b6000819050919050565b60006106a161069c610697846105c4565b61067c565b6105c4565b9050919050565b60006106b382610686565b9050919050565b60006106c5826106a8565b9050919050565b6106d5816106ba565b82525050565b60006020820190506106f060008301846106cc565b92915050565b600082825260208201905092915050565b7f496e76616c696420474d50207365727669636520696e64657800000000000000600082015250565b600061073d6019836106f6565b915061074882610707565b602082019050919050565b6000602082019050818103600083015261076c81610730565b9050919050565b7f4e487b7100000000000000000000000000000000000000000000000000000000600052603260045260246000fd5b7f496e76616c696420474d5020736572766963652073656e646572000000000000600082015250565b60006107d8601a836106f6565b91506107e3826107a2565b602082019050919050565b60006020820190508181036000830152610807816107cb565b9050919050565b600081905092915050565b82818337600083830152505050565b6000610834838561080e565b9350610841838584610819565b82840190509392505050565b600061085a828486610828565b91508190509392505050565b600082825260208201905092915050565b6000601f19601f8301169050919050565b60006108948385610866565b93506108a1838584610819565b6108aa83610877565b840190509392505050565b600060208201905081810360008301526108d0818486610888565b90509392505050565b7f43616c6c6572206973206e6f7420746865206f776e6572000000000000000000600082015250565b600061090f6017836106f6565b915061091a826108d9565b602082019050919050565b6000602082019050818103600083015261093e81610902565b905091905056fea2646970667358221220fafb3ab8426ce3ef7331456c569cd76b86ec49eaf643965434f7e203b140ab2464736f6c63430008130033",
  "linkReferences": {},
  "deployedLinkReferences": {}
}